:100000000C943F010C945C010C945C010C945C0119
:100010000C945C010C945C010C945C010C945C01EC
:100020000C945C010C945C010C945C010C945C01DC
:100030000C945C010C945C010C945C010C945C01CC
:100040000C945C010C945C010C945C010C945C01BC
:100050000C945C010C945C010C945C010C945C01AC
:100060000C945C010C945E010C945C010C945C019A
:100070000C945C010C945C010C945C010C945C018C
:100080000C945C010C945C010C945C010C945C017C
:100090000C945C010C945C010C945C010C945C016C
:1000A0000C945C010C945C010C945C010C945C015C
:1000B0000C945C010C945C010C945C010C945C014C
:1000C0000C945C010C945C010C945C010C945C013C
:1000D0000C945C010C945C010C945C010C945C012C
:1000E0000C945C010C945C010C945C010C945C011C
:1000F0000C945C010C945C010C945C010C945C010C
:100100000C945C010C945C010C945C010C945C01FB
:100110000C945C010C945C010C945C010C945C01EB
:100120000C945C010C945C010C945C010C945C01DB
:100130000C945C010C945C010C945C010C945C01CB
:100140000C945C010C945C010C945C010C945C01BB
:100150000C945C010C945C010C945C010C945C01AB
:100160000C945C010C945C010C945C010C945C019B
:100170000C945C010C945C010C945C010C945C018B
:100180000C945C010C945C010C945C010C945C017B
:100190000C945C010C945C010C945C010C945C016B
:1001A0000C945C010C945C010C945C010C945C015B
:1001B0000C945C010C945C010C945C010C945C014B
:1001C0000C945C010C945C010C945C010C945C013B
:1001D0000C945C010C945C010C945C010C945C012B
:1001E0000C945C010C945C010C945C010C945C011B
:1001F0000C945C010C945C010C945C010763423626
:10020000B79BD8A71A39685618AEBAAB558C1D3CA7
:10021000B7CC5763BD6DEDFD753EF6177231BF006B
:100220000000803F08000000BE922449123EABAAA5
:10023000AA2ABECDCCCC4C3E00000080BEABAAAA00
:10024000AA3E00000000BF000000803F0000000048
:1002500000084178D3BB4387D1133D190E3CC3BD81
:100260004282AD2B3E68EC8276BED98FE1A93E4C2E
:1002700080EFFFBE01C4FF7F3F000000000011249B
:100280001FBECFEFCDBFDFE2DEBF10E2A0E0B0E2E5
:10029000E0E1FEE002C005900D92A632B107D9F769
:1002A00020E2A6E2B0E201C01D92A732B207E1F758
:1002B0000E940C030C9406070C9400001F920F92EE
:1002C0000FB60F9211248F93EF93FF9380E48093E6
:1002D00045068091A008E0EAF8E081818823ECF3EC
:1002E00081E08093262080E480934606FF91EF9181
:1002F0008F910F900FBE0F901F901895E0E4F6E0DD
:1003000080E8818380E2818380E4818380E181834E
:10031000E0E6F6E080858470828380858270828347
:100320008085817082838085887082830895E0E46F
:10033000F6E080E487832FE738E341E02150304046
:100340004040E1F700C0000020E827835FE768E352
:1003500091E0515060409040E1F700C0000090E112
:100360009783AFE7B8E331E0A150B0403040E1F708
:1003700000C0000030E237834FE758E361E04150AE
:1003800050406040E1F700C000003683268396832A
:100390008683AFE4B3EC1197F1F700C0000025832A
:1003A000858335839583AFE4B3EC1197F1F700C0F3
:1003B00000003683268396838683AFE4B3EC1197DF
:1003C000F1F700C000002583858335839583AFE472
:1003D000B3EC1197F1F700C00000368326839683B3
:1003E00086838FE493EC0197F1F700C00000089535
:1003F000E1E0F2E0808180658083E2E0F2E08081EC
:100400008061808310920302E4E0F2E080818460E6
:10041000808391E090930602E0E2F2E080818160C7
:100420008083909300020895E1E2F2E0308195E745
:10043000899F212D1124982F921B9695920F9695A6
:1004400096959695492F440F242F220F220F240FA3
:10045000920F891B880F880F880F832B8083E0E021
:10046000F2E0808184608083E6E0F2E0808180FFBA
:10047000FDCF81E08093060220911002809111024D
:1004800090E0982F8827820F911D089588ED84BFF2
:10049000E0E5F0E0808182608083818181FFFDCF93
:1004A00088ED84BFE0E4F0E091E0908384BF82E0D7
:1004B00081830895A0E4B6E088E011968C931197AB
:1004C00015968C931597E0EAF8E083E085838CEA33
:1004D000868381E9878388E1848384E012968C9304
:1004E00008950E945A0287E08093A20080E88FBF9F
:1004F00080E38093A3080895E0EAF8E0918195FFF6
:10050000FDCF8093A008E0EAF8E0818185FFFDCF70
:100510000895AF92BF92CF92DF92EF92FF920F9326
:100520001F93CF93DF935C01992334F48DE20E94F3
:100530007C02B194A194B108A114B10409F44AC099
:10054000C501C0E0D0E02AE030E02196B9010E9468
:10055000DE06CB010097C9F7C230D105D8F185017D
:100560002197BE010D2E000C880B990B0E94600490
:100570009B01AC0160E070E080E291E40E94EC0439
:100580006B017C01B801012E000C880B990B0E94B5
:100590006004A70196010E94B60320E030E040E429
:1005A00052E40E944A030E942F04862F0E947C027C
:1005B000CE010196039774F0C701B6010E9428048A
:1005C000AB01BC01C801BA010E94DE068C01C1303A
:1005D000D10531F6C5016AE070E00E94DE06805D5B
:1005E0000E947C02DF91CF911F910F91FF90EF90BD
:1005F000DF90CF90BF90AF900895CF93DF93EC0141
:100600008881882331F021960E947C028991811192
:10061000FBCFDF91CF9108950E9471020E947E016D
:100620000E9446020E9497010E94F8018AE00E94FF
:100630007C028AE190E20E94FD0280E090E20E944A
:10064000FD028AE190E20E94FD028AE00E947C02A3
:100650002FEF84E39CE0215080409040E1F700C000
:100660000000C0E4D6E010E4012F0D8380E00E947A
:1006700014020E9489028AE00E947C021E832FEFEE
:1006800080E792E0215080409040E1F700C00000F8
:10069000ECCF5058BB27AA270E9461030C94B204E8
:1006A0000E94A40438F00E94AB0420F039F49F3F6C
:1006B00019F426F40C94A1040EF4E095E7FB0C94D5
:1006C0009B04E92F0E94C30458F3BA17620773070B
:1006D0008407950720F079F4A6F50C94E5040EF450
:1006E000E0950B2EBA2FA02D0B01B90190010C0142
:1006F000CA01A0011124FF27591B99F0593F50F45A
:10070000503E68F11A16F040A22F232F342F4427B1
:10071000585FF3CF469537952795A795F0405395A9
:10072000C9F77EF41F16BA0B620B730B840BBAF079
:100730009150A1F0FF0FBB1F661F771F881FC2F7E4
:100740000EC0BA0F621F731F841F48F487957795F8
:100750006795B795F7959E3F08F0B0CF9395880FB2
:1007600008F09927EE0F9795879508950E94CA0380
:100770000C94B2040E94AB0458F00E94A40440F010
:1007800029F45F3F29F00C949B0451110C94E6046A
:100790000C94A1040E94C30468F39923B1F3552378
:1007A00091F3951B550BBB27AA2762177307840784
:1007B00038F09F5F5F4F220F331F441FAA1FA9F31A
:1007C00035D00E2E3AF0E0E832D091505040E69508
:1007D000001CCAF72BD0FE2F29D0660F771F881F69
:1007E000BB1F261737074807AB07B0E809F0BB0B5C
:1007F000802DBF01FF2793585F4F3AF09E3F510570
:1008000078F00C949B040C94E6045F3FE4F3983E6C
:10081000D4F3869577956795B795F7959F5FC9F758
:10082000880F911D9695879597F90895E1E0660FD9
:10083000771F881FBB1F621773078407BA0720F052
:10084000621B730B840BBA0BEE1F88F7E0950895BB
:100850000E942F046894B1110C94E60408950E943C
:10086000CB0488F09F5798F0B92F9927B751B0F073
:10087000E1F0660F771F881F991F1AF0BA95C9F724
:1008800014C0B13091F00E94E504B1E008950C94D9
:10089000E504672F782F8827B85F39F0B93FCCF38C
:1008A000869577956795B395D9F73EF490958095A1
:1008B000709561957F4F8F4F9F4F0895E89409C0C1
:1008C00097FB3EF490958095709561957F4F8F4F83
:1008D0009F4F9923A9F0F92F96E9BB279395F69599
:1008E000879577956795B795F111F8CFFAF4BB0F17
:1008F00011F460FF1BC06F5F7F4F8F4F9F4F16C07B
:10090000882311F096E911C0772321F09EE8872F04
:10091000762F05C0662371F096E8862F70E060E0C0
:100920002AF09A95660F771F881FDAF7880F969539
:10093000879597F9089597F99F6780E870E060E0E0
:1009400008959FEF80EC089500240A941616170668
:1009500018060906089500240A94121613061406B0
:1009600005060895092E0394000C11F4882352F013
:10097000BB0F40F4BF2B11F460FF04C06F5F7F4FCB
:100980008F4F9F4F089557FD9058440F551F59F0B2
:100990005F3F71F04795880F97FB991F61F09F3F6C
:1009A00079F087950895121613061406551FF2CF95
:1009B0004695F1DF08C0161617061806991FF1CFE5
:1009C00086957105610508940895E894BB2766270C
:1009D0007727CB0197F90895FA01EE0FFF1F3096A4
:1009E00021053105A1F16115710561F48038BFE37E
:1009F0009B0749F168949038810561F08038BFEF1A
:100A00009B0741F099234AF5FF3FE1053105210598
:100A100019F1E8940894E795D901AA2329F4AB2F9A
:100A2000BE2FF85FD0F310C0FF5F70F4A695E0F71B
:100A3000F73950F019F0FF3A38F49F779F930DD0B3
:100A40000F9007FC9058089546F00C94A10460E0C4
:100A500070E080E89FE308954FE79F775F934F939F
:100A60003F932F930E94E7052F913F914F915F9104
:100A70000E9463060C94440529F416F00C949B0420
:100A80000C94E5040C94A1040E94CB04A8F39638BE
:100A9000A0F707F80F92E8942BE33AEA48EB5FE7F8
:100AA0000E9479060F920F920F924DB75EB70F9288
:100AB0000E942F06ECEFF1E00E9476054F915F91C6
:100AC000EF91FF91E595EE1FFF1F49F0FE57E0689B
:100AD0004427EE0F441FFA95E1F74195550B0E940C
:100AE000A9050F9007FE0C949D050895DF93CF9301
:100AF0001F930F93FF92EF92DF927B018C0168941A
:100B000006C0DA2EEF010E947606FE01E894A59158
:100B10002591359145915591A6F3EF010E9461030E
:100B2000FE019701A801DA9469F7DF90EF90FF903A
:100B30000F911F91CF91DF9108959B01AC0160E06F
:100B400070E080E89FE30C94B6030C949B040C9433
:100B5000D0060E94CB04D8F39923C9F3940F511DFA
:100B6000A3F39150504094F059F0882332F0660F6F
:100B7000771F881F91505040C1F79E3F51052CF7B9
:100B8000880F911D9695879597F908955F3FACF072
:100B9000983E9CF0BB27869577956795B79508F4A6
:100BA000B1609395C1F7BB0F58F711F460FFE8CF20
:100BB0006F5F7F4F8F4F9F4FE3CF0C94E60416F08B
:100BC0000C94D0060C94A10468940C949B040E948D
:100BD000CB04A8F39923C1F3AEF3DF93CF931F9314
:100BE0000F93FF92C92FDD2788232AF02197660FE4
:100BF000771F881FDAF720E030E040E85FEB9FE3E3
:100C0000883920F0803E38F021968F770E944A0381
:100C1000E4E2F2E004C00E944A03E1E5F2E00E944F
:100C200076058B01BE01EC01FB2E6F57710975959E
:100C3000771F880B990B0E94600428E132E741E39B
:100C40005FE30E947606AF2D9801AE01FF900F91F1
:100C50001F91CF91DF910E9461030C94B204FA01BD
:100C6000DC01AA0FBB1F9B01AC01BF5728F4222750
:100C700033274427507820C0B75190F4AB2F00247D
:100C8000469537952795011CA395D2F3002071F066
:100C9000220F331F441FB395DAF30ED00C9449038F
:100CA00061307105A0E88A07B94630F49B01AC01B8
:100CB0006627772788279078309621F02083318324
:100CC0004283538308950E9476060C94B2040E94D6
:100CD000A40438F00E94AB0420F0952311F00C948A
:100CE0009B040C94A10411240C94E6040E94C304F8
:100CF00070F3959FC1F3950F50E0551F629FF0016F
:100D0000729FBB27F00DB11D639FAA27F00DB11D87
:100D1000AA1F649F6627B00DA11D661F829F222710
:100D2000B00DA11D621F739FB00DA11D621F839F97
:100D3000A00D611D221F749F3327A00D611D231F6D
:100D4000849F600D211D822F762F6A2F11249F57BB
:100D500050409AF0F1F088234AF0EE0FFF1FBB1FBE
:100D6000661F771F881F91505040A9F79E3F51057D
:100D700080F00C949B040C94E6045F3FE4F3983EEF
:100D8000D4F3869577956795B795F795E7959F5F27
:100D9000C1F7FE2B880F911D9695879597F90895B9
:100DA0009F3F31F0915020F4879577956795B795DF
:100DB000880F911D9695879597F9089597FB072EB3
:100DC00016F4009407D077FD09D00E94F20607FCC4
:100DD00005D03EF4909581959F4F0895709561954B
:100DE0007F4F0895AA1BBB1B51E107C0AA1FBB1F61
:100DF000A617B70710F0A61BB70B881F991F5A95A7
:100E0000A9F780959095BC01CD010895F894FFCF86
:100E10007374617254002D2D2D2D2D2D2D2D2D2D02
:100E200061736369207461626C652D2D2D2D2D2DEC
:060E30002D2D2D2D000008
:00000001FF
